:0400000062EF00F0BB
:100008005B82D9CF01F0DACF02F005D0AE50000EF6
:10001800596E000E586EABB4F9D7ABA206D0AB98A8
:10002800AB88000E596E000E586E9EAA2AD09E9A72
:10003800AECF03F00350D8B424D00A0E0318D8B4B6
:1000480020D059BE06D0595018E1200E585CD8B0BF
:1000580014D05850D90FD96EDA6A03C0DFFF584A56
:10006800592A0D0E0318D8A40CD05850D90FD96EA0
:10007800DA6A000EDF6E010E5A6E000E596E000E1F
:10008800586E9EA215D09E920001FC4BFD2BFDBF21
:100098000FD0100EFC5D270EFD59D8A009D0000E18
:1000A800FD6F000EFC6F8CA402D08C9401D08C8460
:1000B80002C0DAFF01C0D9FF5B9211001BEF14F0F8
:1000C800E4EF08F0250E8019D8B431D05250D96E1B
:1000D800DA6A020ED926DE50DE10D8B413D0525098
:1000E800D96EDA6A020ED92602D8E4EF08F00500C4
:1000F800FA6EDE50FD6EDE50FE6EF850FF6EFA505E
:10010800805112005250D96EDA6ADECF60F0DDCF2E
:1001180061F060C0D9FF61C0DAFF80C0DFFF5250D4
:10012800D96EDA6ADE2A000EDD22E4EF08F0000E4E
:100138007D6F000E7C6F000E736F000E726F03D020
:100148007285534A542A53C0F6FF54C0F7FF08007B
:10015800F550300AD8B4F4D753C0F6FF54C0F7FFAF
:100168000800F55050EC15F0D8A034D0000E00016E
:100178007D6F000E7C6F7CC004F07DC005F0000E22
:10018800076E0A0E066E2AEC15F004C07CF005C056
:100198007DF0D00E0001606FFF0E616F53C0F6FF57
:1001A80054C0F7FF0800F550626F636B6051622717
:1001B8006151632362517C2763517D23534A542A3A
:1001C80053C0F6FF54C0F7FF0800F55050EC15F087
:1001D800D8B0D1D753C0F6FF54C0F7FF0800F55088
:1001E8002E0AD8A439D00001738D534A542A000E20
:1001F8007F6F000E7E6F25D07EC004F07FC005F0B3
:10020800000E076E0A0E066E2AEC15F004C07EF08A
:1002180005C07FF0D00E0001606FFF0E616F53C004
:10022800F6FF54C0F7FF0800F550626F636B60512A
:1002380062276151632362517E2763517F23534AAA
:10024800542A53C0F6FF54C0F7FF0800F55050EC8D
:1002580015F0D8A0F7D0D0D7000E00017F6F000EA0
:100268007E6F7389EFD073850AD15550D96EDA6ADB
:10027800020EDF26DF5CD96EDA6ADECF68F0DECFE9
:1002880069F068516911D8A404D0F70E686F3F0E61
:10029800696F000E6B6F000E6A6F03D000016A4B26
:1002A8006B2B6A516825606F6B516921616F60C063
:1002B800F6FF61C0F7FFF86A020EF76403D0080082
:1002C800F55005D0F6CFE9FFF7CFEAFFEF50000968
:1002D800D8A4E4D700017E517F11D8B40ED06A515A
:1002E8007E5D7F51800A606F6B51800A6059D8B07B
:1002F80004D07EC06AF07FC06BF07C516A5D7D518E
:100308006B59D8B005D06A517C5F6B517D5B33D097
:10031800000E7D6F000E7C6F2ED05250D96EDA6AB7
:10032800020ED926DE50DE10D8B412D05250D96E43
:10033800DA6A020ED92601D81ED00500FA6EDE5000
:10034800FD6EDE50FE6EF850FF6EFA50200E120061
:100358005250D96EDA6ADECF60F0DDCF61F060C04E
:10036800D9FF61C0DAFF200EDF6E5250D96EDA6A0B
:10037800DE2A000EDD2200017C07D8A07D077C293B
:10038800CCE17D29D8B454D0C8D75250D96EDA6A96
:10039800020ED926DE50DE10D8B425D05250D96EC0
:1003A800DA6A020ED92601D81AD00500FA6EDE5094
:1003B800FD6EDE50FE6EF850FF6EFA5068C0F6FF14
:1003C80069C0F7FFF86A020EF76403D00800F55019
:1003D80005D0F6CFE9FFF7CFEAFFEF501200000192
:1003E800684B692B25D068C0F6FF69C0F7FFF86A2B
:1003F8005250D96EDA6ADECF60F0DDCF61F060C0AE
:10040800D9FF61C0DAFF020EF76403D00800F55087
:1004180005D0F6CFE9FFF7CFEAFFEF50DF6E000116
:10042800684B692B5250D96EDA6ADE2A000EDD223B
:100438006A07D8A06B076A29A8E16B29D8B4E4EF4A
:1004480008F0A3D753C0F6FF54C0F7FF534A542A05
:100458000800F5CF80F000018051000AD8B4F2EF0F
:1004680008F0640AD8B40BD0020AD8B4FCD60F0A34
:10047800D8B405D01A0AD8B4F8D6E4EF08F0070EB5
:100488007315D8B4FDEF06F073A904D0000E7F6F82
:10049800060E7E6F5550D96EDA6ADFCF60F0040E13
:1004A800DF266051D96EDA6ADECF78F0DECF79F0D8
:1004B800DECF7AF0DECF7BF07BAF14D078C004F0CB
:1004C80079C005F07AC006F07BC007F0E9EC14F0BB
:1004D80004C078F005C079F006C07AF007C07BF058
:1004E800030E7213000E716F000E706F78C004F067
:1004F80079C005F07AC006F07BC007F0000E086EE0
:10050800000E096E000E0A6E000E0B6EAEEC12F0B5
:10051800D8B082D07A357B35820F706F716BFF0E41
:1005280071237007D8A0710770C004F071C005F07E
:10053800000E076E030E066E2AEC15F004C070F06C
:1005480005C071F070C00AF071C00BF0000E0D6E9E
:100558000A0E0C6EF3EC12F00AC070F00BC071F0CA
:10056800000171AF03D07007D8A07107705100085F
:10057800F7EC08F02BC074F02CC075F02DC076F0A5
:100588002EC077F074C012F075C013F076C014F066
:1005980077C015F078C016F079C017F07AC018F057
:1005A8007BC019F0DFEC0AF012C074F013C075F0CC
:1005B80014C076F015C077F074C004F075C005F06B
:1005C80076C006F077C007F0000E086E000E096EC0
:1005D800800E0A6E3F0E0B6E5CEC11F0D8B005D0A1
:1005E80000017007D8A0710717D074C004F075C057
:1005F80005F076C006F077C007F0000E086E000E12
:10060800096E200E0A6E410E0B6E5CEC11F0D8A03C
:1006180003D00001704B712B00017FBF06D07F51C2
:1006280021E10D0E7E5DD8B01DD078C03AF079C0BA
:100638003BF07AC03CF07BC03DF07E51FBEC0DF006
:100648002BC03EF02CC03FF02DC040F02EC041F032
:1006580075EC0CF03AC078F03BC079F03CC07AF009
:100668003DC07BF0000171BF06D0715131E10A0E27
:10067800705DD8B02DD078C004F079C005F07AC08C
:1006880006F07BC007F0000E086E000E096E000E23
:100698000A6E000E0B6EAEEC12F0D8B064D078C0C3
:1006A80034F079C035F07AC036F07BC037F0C4EC4E
:1006B80011F03450351036103710D8A454D000013A
:1006C80071BF51D0715104E1020E705DD8A04BD0BA
:1006D80074C004F075C005F076C006F077C007F066
:1006E8005F0E086E700E096E890E0A6E400E0B6E54
:1006F8005CEC11F0D8B003D00001F70E02D0000175
:10070800F80E7027FF0E71237051F7EC08F02BC01C
:1007180074F02CC075F02DC076F02EC077F078C03C
:1007280004F079C005F07AC006F07BC007F074C009
:1007380008F075C009F076C00AF077C00BF0E2EC5B
:1007480010F004C06CF005C06DF006C06EF007C074
:100758006FF0000E0001786F000E796F000E7A6F4F
:10076800000E7B6F3CD078C034F079C035F07AC089
:1007780036F07BC037F0C4EC11F034C06CF035C0F3
:100788006DF036C06EF037C06FF078C04AF079C0AF
:100798004BF07AC04CF07BC04DF06CC004F06DC0DB
:1007A80005F06EC006F06FC007F0000E30EC0FF0D9
:1007B80004C04EF005C04FF006C050F007C051F01D
:1007C80075EC14F04AC078F04BC079F04CC07AF060
:1007D8004DC07BF0000E0001716F000E706F010EAE
:1007E800806F8051040DA90EF324F66E3E0EF4209E
:1007F800F76E0900F5506C5D0900F5506D59090058
:10080800F5506E590900F5506F59D8A005D0802BC6
:100818000A0E8019D8A4E5D780517E25606F000E96
:100828007F21616F705160277151612360517C5F36
:1008380061517D5B7E517F11D8B403D07C07D8A06D
:100848007D0772C060F0030E6017D8B403D07C0730
:10085800D8A07D0772A5A2D072C060F0030E601701
:10086800D8B461D05250D96EDA6A020ED926DE5059
:10087800DE10D8B412D05250D96EDA6A020ED926D8
:1008880001D851D00500FA6EDE50FD6EDE50FE6EC6
:10089800F850FF6EFA502D0E12005250D96EDA6AD7
:1008A800DECF60F0DDCF61F060C0D9FF61C0DAFF54
:1008B8002D0EDF6E5250D96EDA6ADE2A000EDD2266
:1008C80032D05250D96EDA6A020ED926DE50DE10C6
:1008D800D8B412D05250D96EDA6A020ED92601D88D
:1008E8001ED00500FA6EDE50FD6EDE50FE6EF8502A
:1008F800FF6EFA50300E12005250D96EDA6ADECF0F
:1009080060F0DDCF61F060C0D9FF61C0DAFF300E62
:10091800DF6E5250D96EDA6ADE2A000EDD2200013F
:100928007C07D8A07D0700017DBFDDD07D51C9E1DE
:100938007C05D8A0D8D0C5D75250D96EDA6A020E35
:10094800D926DE50DE10D8B412D05250D96EDA6AE9
:10095800020ED92601D81ED00500FA6EDE50FD6EB3
:10096800DE50FE6EF850FF6EFA50200E1200525004
:10097800D96EDA6ADECF60F0DDCF61F060C0D9FFF2
:1009880061C0DAFF200EDF6E5250D96EDA6ADE2AB5
:10099800000EDD2200017C07D8A07D077DBF05D0B1
:1009A8007D51CAE17C05D8B0C7D772C060F0030E8C
:1009B8006017D8B498D05250D96EDA6A020ED92688
:1009C800DE50DE10D8B412D05250D96EDA6A020E58
:1009D800D92601D888D00500FA6EDE50FD6EDE50AB
:1009E800FE6EF850FF6EFA502D0E12005250D96E5E
:1009F800DA6ADECF60F0DDCF61F060C0D9FF61C098
:100A0800DAFF2D0E69D06CC004F06DC005F06EC021
:100A180006F06FC007F08051040DA90EF324F66E9E
:100A28003E0EF420F76E0900F5CF08F00900F5CF67
:100A380009F00900F5CF0AF00A00F5CF0BF035EC04
:100A480013F004C074F005C075F006C076F007C056
:100A580077F074C011F075C012F076C013F077C04B
:100A680014F00A0E156E000E166E000E176E000EAC
:100A7800186EE8EC13F011C074F012C075F013C0D2
:100A880076F014C077F05250D96EDA6A020ED92681
:100A9800DE50DE10D8B413D05250D96EDA6A020E86
:100AA800D92601D820D00500FA6EDE50FD6EDE5042
:100AB800FE6EF850FF6EFA507451300F120052500B
:100AC800D96EDA6ADECF60F0DDCF61F060C0D9FFA1
:100AD80061C0DAFF7451300FDF6E5250D96EDA6A96
:100AE800DE2A000EDD22000180078029D8B433D029
:100AF8008AD75250D96EDA6A020ED926DE50DE1035
:100B0800D8B412D05250D96EDA6A020ED92601D85A
:100B18001ED00500FA6EDE50FD6EDE50FE6EF850F7
:100B2800FF6EFA50300E12005250D96EDA6ADECFDC
:100B380060F0DDCF61F060C0D9FF61C0DAFF300E30
:100B4800DF6E5250D96EDA6ADE2A000EDD2200010D
:100B58007007D8A0710771BF05D07151CAE170053F
:100B6800D8B0C7D77FBF09D07F5104E1090E7E5D99
:100B7800D8A003D0080E806F02D07EC080F08051CC
:100B88007E5F000E7F5B8051D8B42ED05250D96E54
:100B9800DA6A020ED926DE50DE10D8B412D05250CE
:100BA800D96EDA6A020ED92601D81ED00500FA6E6F
:100BB800DE50FD6EDE50FE6EF850FF6EFA502E0EBF
:100BC80012005250D96EDA6ADECF60F0DDCF61F0E4
:100BD80060C0D9FF61C0DAFF2E0EDF6E5250D96EA9
:100BE800DA6ADE2A000EDD2200018051F7EC08F0F7
:100BF8002BC064F02CC065F02DC066F02EC067F0E5
:100C080078C016F079C017F07AC018F07BC019F0D8
:100C180064C012F065C013F066C014F067C015F028
:100C2800DFEC0AF012C034F013C035F014C036F00F
:100C380015C037F0C4EC11F034C06CF035C06DF05D
:100C480036C06EF037C06FF097D06CC004F06DC03E
:100C580005F06EC006F06FC007F08051040DA90EB4
:100C6800F324F66E3E0EF420F76E0900F5CF08F077
:100C78000900F5CF09F00900F5CF0AF00A00F5CF11
:100C88000BF035EC13F004C074F005C075F006C025
:100C980076F007C077F074C011F075C012F076C016
:100CA80013F077C014F00A0E156E000E166E000EC3
:100CB800176E000E186EE8EC13F011C074F012C035
:100CC80075F013C076F014C077F05250D96EDA6A16
:100CD800020ED926DE50DE10D8B413D05250D96E89
:100CE800DA6A020ED92601D820D00500FA6EDE5045
:100CF800FD6EDE50FE6EF850FF6EFA507451300FE4
:100D080012005250D96EDA6ADECF60F0DDCF61F0A2
:100D180060C0D9FF61C0DAFF7451300FDF6E5250E6
:100D2800D96EDA6ADE2A000EDD226CC011F06DC0C1
:100D380012F06EC013F06FC014F000018051040D62
:100D4800A90EF324F66E3E0EF420F76E0900F5CFD7
:100D580015F00900F5CF16F00900F5CF17F00A00D5
:100D6800F5CF18F0E8EC13F011C06CF012C06DF07C
:100D780013C06EF014C06FF0000180078029D8B44A
:100D880033D063D75250D96EDA6A020ED926DE50B4
:100D9800DE10D8B412D05250D96EDA6A020ED926B3
:100DA80001D81ED00500FA6EDE50FD6EDE50FE6ED4
:100DB800F850FF6EFA50300E12005250D96EDA6AAF
:100DC800DECF60F0DDCF61F060C0D9FF61C0DAFF2F
:100DD800300EDF6E5250D96EDA6ADE2A000EDD223E
:100DE80000017E07D8A07F077E517F11D8B4E8D1D3
:100DF800C9D75550D96EDA6ADF50DF2ADF2AD96E93
:100E0800DA6ADECF6CF0DDCF6DF0000E6DBFFF0E3D
:100E18006E6F6F6F6FAF0AD0030E72136F1F6E1F66
:100E28006D1F6C6D000E6D236E236F237E517F1135
:100E3800D8A408D06C516D116E116F11D8A402D0CE
:100E48007E4B7F2B010E806F8051040DA90EF32479
:100E5800F66E3E0EF420F76E0900F5506C5D090041
:100E6800F5506D590900F5506E590900F5506F5944
:100E7800D8A005D0802B0A0E8019D8A4E5D78051B8
:100E8800606F616B7E51605D6151800A626F7F5156
:100E9800800A6259D8B003D07EC080F010D080514B
:100EA800606F616B60517E5D7F51800A626F615136
:100EB800800A6259D8B003D080C07EF07F6B7C5125
:100EC8007D11D8B409D072C060F0030E6017D8B491
:100ED80003D07C07D8A07D0773AD13D07C517E5D0D
:100EE8007F51800A606F7D51800A6059D8B005D063
:100EF8007E517C5F7F517D5B04D0000E7D6F000EBC
:100F08007C6F8051606F616B7C51605D6151800ABC
:100F1800626F7D51800A6259D8B005D080517C5FDC
:100F2800000E7D5B04D0000E7D6F000E7C6F72A5F5
:100F38006CD072C060F0030E6017D8B42ED0525037
:100F4800D96EDA6A020ED926DE50DE10D8B412D075
:100F58005250D96EDA6A020ED92601D81ED0050081
:100F6800FA6EDE50FD6EDE50FE6EF850FF6EFA50DF
:100F78002D0E12005250D96EDA6ADECF60F0DDCF46
:100F880061F060C0D9FF61C0DAFF2D0EDF6E5250EC
:100F9800D96EDA6ADE2A000EDD2200017C517D114D
:100FA800D8B405D15250D96EDA6A020ED926DE506D
:100FB800DE10D8B412D05250D96EDA6A020ED92691
:100FC80001D81ED00500FA6EDE50FD6EDE50FE6EB2
:100FD800F850FF6EFA50300E12005250D96EDA6A8D
:100FE800DECF60F0DDCF61F060C0D9FF61C0DAFF0D
:100FF800300EDF6E5250D96EDA6ADE2A000EDD221C
:1010080000017C07D8A07D07C9D77C517D11D8B4D1
:1010180036D05250D96EDA6A020ED926DE50DE106A
:10102800D8B412D05250D96EDA6A020ED92601D835
:101038001ED00500FA6EDE50FD6EDE50FE6EF850D2
:10104800FF6EFA50200E12005250D96EDA6ADECFC7
:1010580060F0DDCF61F060C0D9FF61C0DAFF200E1B
:10106800DF6E5250D96EDA6ADE2A000EDD220001E8
:101078007C07D8A07D077C517D11D8A4CAD772C03F
:1010880060F0030E6017D8B492D05250D96EDA6A65
:10109800020ED926DE50DE10D8B412D05250D96EC6
:1010A800DA6A020ED92601D882D00500FA6EDE501F
:1010B800FD6EDE50FE6EF850FF6EFA502D0E1200D7
:1010C8005250D96EDA6ADECF60F0DDCF61F060C0D1
:1010D800D9FF61C0DAFF2D0EDF6E63D07EC060F0ED
:1010E8007FC061F0D89060376137D890603761373A
:1010F800A90E6025F66E3E0E6121F76E0900F5CF48
:1011080008F00900F5CF09F00900F5CF0AF00A0048
:10111800F5CF0BF06CC004F06DC005F06EC006F0A2
:101128006FC007F035EC13F004C011F005C012F0E1
:1011380006C013F007C014F00A0E156E000E166EE6
:10114800000E176E000E186EE8EC13F01150300FF9
:10115800806F5250D96EDA6A020ED926DE50DE1040
:10116800D8B412D05250D96EDA6A020ED92601D8F4
:101178001ED00500FA6EDE50FD6EDE50FE6EF85091
:10118800FF6EFA50805112005250D96EDA6ADECFE3
:1011980060F0DDCF61F060C0D9FF61C0DAFF80C0C8
:1011A800DFFF5250D96EDA6ADE2A000EDD22000116
:1011B8007E07D8A07F077E2991E17F29D8A48ED702
:1011C80053C0F6FF54C0F7FF534A542A0800F5CF1E
:1011D80080F000018051D8A466EF00F0000E536E35
:1011E800000E526E1200336E33AEF3D0336C3350B0
:1011F800800A120FD8A088D0000E0D6E0A0E0C6E51
:10120800000E076E640E066E3350046E056A04BE47
:101218000506B0EC13F004C00AF005C00BF0F3ECBF
:1012280012F0090E0A260A50040D750EF324F66E04
:101238003E0EF420F76E0900F5CF16F00900F5CF41
:1012480017F00900F5CF18F00A00F5CF19F0000ED5
:101258000D6E640E0C6E33500A6E0B6A0ABE0B06D6
:10126800F3EC12F0120E0A260A50040D750EF32440
:10127800F66E3E0EF420F76E0900F5CF12F0090065
:10128800F5CF13F00900F5CF14F00A00F5CF15F0EB
:10129800DFEC0AF012C02FF013C030F014C031F0A8
:1012A80015C032F02FC012F030C013F031C014F066
:1012B80032C015F0000E076E0A0E066E3350046E2B
:1012C800056A04BE0506B0EC13F00450040D750E53
:1012D800F324F66E3E0EF420F76E0900F5CF16F0F3
:1012E8000900F5CF17F00900F5CF18F00A00F5CF7F
:1012F80019F0DFEC0AF012C02BF013C02CF014C068
:101308002DF015C02EF012003350800A750FD8A0AA
:101318004BD0000E0D6E0A0E0C6E33500A6E0B6A1F
:101328000ABE0B06F3EC12F0090E0A260A50040D49
:10133800750EF324F66E3E0EF420F76E0900F5CF15
:1013480012F00900F5CF13F00900F5CF14F00A00E8
:10135800F5CF15F0000E076E0A0E066E3350046EB8
:10136800056A04BE0506B0EC13F00450040D750EB2
:10137800F324F66E3E0EF420F76E0900F5CF16F052
:101388000900F5CF17F00900F5CF18F00A00F5CFDE
:1013980019F0DFEC0AF012C02BF013C02CF014C0C7
:1013A8002DF015C02EF012003350040D750EF324E5
:1013B800F66E3E0EF420F76E0900F5CF2BF009000B
:1013C800F5CF2CF00900F5CF2DF00A00F5CF2EF05F
:1013D80012003350800A120FD8A088D0000E0D6E6C
:1013E8000A0E0C6E000E076E640E066E3350046E05
:1013F800056A04BE0506B0EC13F004C00AF005C087
:101408000BF0F3EC12F0090E0A260A50040D410EF7
:10141800F324F66E3E0EF420F76E0900F5CF16F0B1
:101428000900F5CF17F00900F5CF18F00A00F5CF3D
:1014380019F0000E0D6E640E0C6E33500A6E0B6AB6
:101448000ABE0B06F3EC12F0120E0A260A50040D1F
:10145800410EF324F66E3E0EF420F76E0900F5CF28
:1014680012F00900F5CF13F00900F5CF14F00A00C7
:10147800F5CF15F0DFEC0AF012C02FF013C030F0F2
:1014880014C031F015C032F02FC012F030C013F084
:1014980031C014F032C015F0000E076E0A0E066E49
:1014A8003350046E056A04BE0506B0EC13F0045010
:1014B800040D410EF324F66E3E0EF420F76E09007B
:1014C800F5CF16F00900F5CF17F00900F5CF18F0A1
:1014D8000A00F5CF19F0DFEC0AF012C02BF013C0A8
:1014E8002CF014C02DF015C02EF012003350800AD5
:1014F800750FD8A04BD0000E0D6E0A0E0C6E33502F
:101508000A6E0B6A0ABE0B06F3EC12F0090E0A26E5
:101518000A50040D410EF324F66E3E0EF420F76EC9
:101528000900F5CF12F00900F5CF13F00900F5CF47
:1015380014F00A00F5CF15F0000E076E0A0E066EBD
:101548003350046E056A04BE0506B0EC13F004506F
:10155800040D410EF324F66E3E0EF420F76E0900DA
:10156800F5CF16F00900F5CF17F00900F5CF18F000
:101578000A00F5CF19F0DFEC0AF012C02BF013C007
:101588002CF014C02DF015C02EF012003350040DAD
:10159800410EF324F66E3E0EF420F76E0900F5CFE7
:1015A8002BF00900F5CF2CF00900F5CF2DF00A003B
:1015B800F5CF2EF012001550800B1E6E1550152415
:1015C800206E14BE20802050D8B40DD02028D8A476
:1015D80008D0000E126E000E136E000E146E000E70
:1015E800156E148E08D0000E126E000E136E000ECB
:1015F800146E000E156E1950800B1E1A19501924FE
:101608001F6E18BE1F801F50D8B40DD01F28D8A435
:1016180008D0000E166E000E176E000E186E000E23
:10162800196E188E08D0000E166E000E176E000E7A
:10163800186E000E196E1F50D8B403D02050D8A4CD
:1016480009D0000E126E000E136E000E146E000EFE
:10165800156E120018501202F3CF29F0F4CF2AF0B9
:101668002950216E226A236A246A2A50256E266A26
:10167800276A286A17501302F3CF29F0F4CF2AF00B
:1016880029502126000E2222232224222A502526F0
:10169800000E26222722282216501402F3CF29F002
:1016A800F4CF2AF029502126000E222223222422B8
:1016B8002A502526000E26222722282223C024F07D
:1016C80022C023F021C022F0216A16501302F3CF62
:1016D80029F0F4CF2AF0295021262A502222000E80
:1016E8002322000E242217501202F3CF29F0F4CF40
:1016F8002AF0295021262A502222000E2322000EE9
:10170800242223C024F022C023F021C022F0216A21
:1017180016501202F3CF29F0F4CF2AF029502126CF
:101728002A502222000E2322000E242218501302CF
:10173800F3CF29F0F4CF2AF0295025262A50262263
:10174800000E2722000E282217501402F3CF29F08A
:10175800F4CF2AF0295025262A502622000E2722C7
:10176800000E282218501402F3CF29F0F4CF2AF0E3
:1017780029501A6E2A501B6E1C6A1D6A1CC01DF067
:101788001BC01CF01AC01BF01A6A1A5025261B50E1
:1017980026221C5027221D50282224502526000EC0
:1017A80026222722282223C024F022C023F021C089
:1017B80022F0216A1F5020C01AF01B6A1A26000E58
:1017C8001B22820E1A24296EFF0E1B202A6E0FD0B0
:1017D800D890253626362736283624BE2580D89038
:1017E80021362236233624362906D8A02A0627AEE3
:1017F800EFD7000E1F6E24AE17D0FF0E21141A6EFD
:10180800FF0E22141B6EFF0E23141C6E7F0E241471
:101818001D6E1A501B101C101D10D8B403D0010ED9
:101828001F6E02D025B0FBD71F50D8B41FD0010EB1
:101838002526000E26222722282228A017D025C0D8
:101848001AF026C01BF027C01CF028C01DF01D345C
:101858001D321C321B321A321AC025F01BC026F06A
:101868001CC027F01DC028F0294A2A2A2ABE0DD0FC
:101878002A5003E12928D8A008D0000E256E000EB2
:10188800266E800E276E7F0E20D02ABE05D02A50E5
:101898000EE12904D8B00BD0000E256E000E266E7E
:1018A800000E276E000E286E000E1E6E0FD029C087
:1018B80020F0FF0E2516FF0E26167F0E2716000EA7
:1018C800281620B0278ED8902030286E1E50281257
:1018D80025C012F026C013F027C014F028C015F058
:1018E80012003D50800B466E3D503D24486E3CBE74
:1018F80048804850D8B40DD04828D8A408D0000E45
:101908003A6E000E3B6E000E3C6E000E3D6E3C8E35
:1019180006D0000E3A6E000E3B6E000E3C6E000EB6
:101928003D6E4150800B476E46504718D8A4468CF0
:1019380041504124476E40BE47804750D8B40DD02F
:101948004728D8A408D0000E3E6E000E3F6E000E49
:10195800406E000E416E408E06D0000E3E6E000EA8
:101968003F6E000E406E000E416E4850475CD8B086
:1019780022D046AC02D0800E461A48C049F047C073
:1019880048F049C047F03AC049F03EC03AF049C073
:101998003EF03BC049F03FC03BF049C03FF03CC07F
:1019A80049F040C03CF049C040F03DC049F041C05A
:1019B8003DF049C041F0000E496E485047C042F022
:1019C800436A425E000E435A43BE2CD0435004E1A2
:1019D8001A0E425CD8A026D03A503B103C103D105D
:1019E800D8B402D0010E01D0000E496E000E3A6E36
:1019F800000E3B6E000E3C6E000E3D6E47C048F078
:101A080015D049A005D0D89049300109496E02D0B7
:101A1800D89049323AB0498E3D343D323C323B325F
:101A28003A32482A4750485CD8A0EBD746BC28D061
:101A38004850D8A409D0000E3A6E000E3B6E000E36
:101A48003C6E000E3D6E12003E503A263F503B223F
:101A580040503C2241503D223DA071D049A005D0C4
:101A6800D89049300109496E02D0D89049323AB02D
:101A7800498E3D343D323C323B323A32482A5FD0BF
:101A88003E503A5C3F503B5840503C583D50800ACD
:101A9800426E4150800A4258D8B025D03A503E5C38
:101AA800426E3B503F58436E3C504058446E3D5048
:101AB8004158456EFF0E42243A6EFF0E43203B6E9E
:101AC800FF0E44203C6EFF0E45203D6E800E461AE8
:101AD800496C4950D8A40FD0010E3A26000E3B227B
:101AE8003C223D2208D03E503A5E3F503B5A40507F
:101AF8003C5A41503D5A3A503B103C103D10D8A436
:101B08001CD04950D8A419D0000E3A6E000E3B6E76
:101B1800000E3C6E000E3D6E1200D8903A363B36F1
:101B28003C363D3649BE3A8049A002D0D88001D023
:101B3800D89049364850D8A448063CAEEED7000E97
:101B4800476E49AE0BD049C042F07F0E4216D8B45A
:101B580003D0010E476E02D03AB0FBD74750D8B435
:101B680020D0010E3A26000E3B223C223D223DA009
:101B780018D03AC042F03BC043F03CC044F03DC0EE
:101B880045F04534453244324332423242C03AF09D
:101B980043C03BF044C03CF045C03DF04828D8A4C1
:101BA800482A4828D8B403D04850D8A40DD0000EED
:101BB8003A6E000E3B6E000E3C6E000E3D6E4850B5
:101BC800D8A402D0000E466E48A002D03C8E01D0A8
:101BD8003C9ED89048303D6E46BE3D8E3AC03AF0A5
:101BE8003BC03BF03CC03CF03DC03DF01200396EBC
:101BF8006D0E3964A0D0000E166E000E176E000E22
:101C0800186E3F0E196E640E086E395098EC14F079
:101C18002F6E306AD8902F363036D8902F3630361F
:101C2800480E2F26000E3022750E2F24F66E3E0E1B
:101C38003020F76E0900F5CF12F00900F5CF13F048
:101C48000900F5CF14F00A00F5CF15F0DFEC0AF023
:101C580012C035F013C036F014C037F015C038F094
:101C68000A0E086E640E046E395015EC15F098ECE7
:101C780014F02F6E306AD8902F363036D8902F3621
:101C88003036240E2F26000E3022750E2F24F66EC5
:101C98003E0E3020F76E0900F5CF16F00900F5CF9B
:101CA80017F00900F5CF18F00A00F5CF19F035C084
:101CB80012F036C013F037C014F038C015F0DFEC5E
:101CC8000AF012C031F013C032F014C033F015C05E
:101CD80034F031C012F032C013F033C014F034C005
:101CE80015F00A0E046E395015EC15F02F6E306A97
:101CF800D8902F363036D8902F363036750E2F24A0
:101D0800F66E3E0E3020F76E0900F5CF16F009008A
:101D1800F5CF17F00900F5CF18F00A00F5CF19F044
:101D2800DFEC0AF012C02BF013C02CF014C02DF019
:101D380015C02EF012000A0E396467D0000E166E18
:101D4800000E176E000E186E3F0E196E0A0E086E02
:101D5800395098EC14F02F6E306AD8902F36303600
:101D6800D8902F363036240E2F26000E3022750ECE
:101D78002F24F66E3E0E3020F76E0900F5CF12F0D4
:101D88000900F5CF13F00900F5CF14F00A00F5CFDC
:101D980015F0DFEC0AF012C035F013C036F014C0AD
:101DA80037F015C038F035C012F036C013F037C020
:101DB80014F038C015F00A0E046E395015EC15F001
:101DC8002F6E306AD8902F363036D8902F3630366E
:101DD800750E2F24F66E3E0E3020F76E0900F5CFF3
:101DE80016F00900F5CF17F00900F5CF18F00A0032
:101DF800F5CF19F0DFEC0AF012C02BF013C02CF06D
:101E080014C02DF015C02EF012003950040D750EB7
:101E1800F324F66E3E0EF420F76E0900F5CF12F0AB
:101E28000900F5CF13F00900F5CF14F00A00F5CF3B
:101E380015F0000E166E000E176E000E186E3F0E8F
:101E4800196EDFEC0AF012C02BF013C02CF014C08E
:101E58002DF015C02EF012000C6E0C50D8A407AE51
:101E68001AD004C008F005C009F006C00AF007C07F
:101E78000BF0081E091E0A1E0B1E082A000E092256
:101E88000A220B2208C00EF009C00FF00AC010F099
:101E98000BC011F008D004C00EF005C00FF006C04A
:101EA80010F007C011F00450051006100710D8A450
:101EB80009D0000E046E000E056E000E066E000EB0
:101EC800076E1200960E0D6E06D00D2AD8901132AC
:101ED80010320F320E32000E0E14086E000E0F1460
:101EE800096E000E10140A6EFE0E11140B6E0850C7
:101EF80009100A100B10D8B40DD0E7D70D2A010E1F
:101F08000E26000E0F2210221122D8901132103204
:101F18000F320E32000E0E14086E000E0F14096EEA
:101F2800000E10140A6EFF0E11140B6E08500910E3
:101F38000A100B10D8B407D0E1D70D06D8900E368A
:101F48000F361036113610BE03D0020E0D60F5D7CD
:101F58000DA0109ED8900D320DC008F0096A0A6ACB
:101F68000B6A08C00BF00A6A096A086A08500E1260
:101F780009500F120A5010120B5011120C50D8A40D
:101F880007AE01D0118E0EC004F00FC005F010C0CE
:101F980006F011C007F01200000E0001D26F000E0B
:101FA800D36F000ED46F000ED56F000ED86F21ECE2
:101FB80012F06F0E0001816F3F0E826F00EC15F07A
:101FC800010E056E900E046ECFEC14F03DEC15F08A
:101FD800B20E0001816FDC0E826F3F0E836FD2C09C
:101FE80084F0D3C085F0D4C086F0D5C087F0B5ECB6
:101FF80014F0010ED227000ED323D423D523000ECC
:10200800D76F100ED66F8C84100E566EB20E576EA8
:10201800270E76EC13F0D86F8C94D851D8B411D021
:102028009B0E816F3F0E826FD2C083F0D3C084F0C5
:10203800D4C085F0D5C086F0D8C087F0886B00EC96
:1020480015F0000E0101ED6F000EEC6FEC51B20FB0
:10205800D96EDA6A000EDF6EEC51920FE16EE26A19
:10206800DFCFE7FFEC4BED2BEDBFF0D7ED5104E1EF
:10207800200EEC5DD8A0EAD7D6C008F0920E096E03
:10208800270E4BEC14F00001D86FD851D8B40DD0FE
:10209800B20E816F3F0E826F920E836F846BD8C031
:1020A80085F0866B00EC15F093D7ED0E816F3F0E2F
:1020B800826F920E836F846B00EC15F089D706C08F
:1020C8000CF00D6A0E6A05340C3601E30D800C50D5
:1020D800146E1450D8A409D0000E046E000E056EBC
:1020E800000E066E000E076E12000AC00CF00D6A94
:1020F8000E6A09340C3601E30D800C50136E135030
:10210800D8B4EAD7058EFF0E0416FF0E0516000E8A
:102118000616098EFF0E0816FF0E0916000E0A167F
:10212800000E0F6E000E106E000E116E000E126E75
:102138007F0E145E1350980F145E180E136ED8900D
:102148000F361036113612360850045C09500558FF
:102158000A500658D8A007D00850045E0950055AFE
:102168000A50065A0F80D890043605360636132EC4
:10217800E6D714AE0DD01450800A970FD8A0ACD76C
:10218800D8901232113210320F32143EF9D70DD0D6
:10219800170E146407D0A0D7D8900F361036113612
:1021A800123614061450D8A4F7D70FC004F010C084
:1021B80005F011C006F012C007F01200063407340B
:1021C800116E1150D8A409D0000E046E000E056ED1
:1021D800000E066E000E076E12000A340B34106EE5
:1021E8001050D8B4F1D7068EFF0E0416FF0E051650
:1021F800FF0E0616000E07160A8EFF0E0816FF0EB3
:102208000916FF0E0A16000E0B16000E0C6E000EB5
:102218000D6E000E0E6E000E0F6E7F0E115E1050CA
:10222800A00F115E200E106ED8900C360D360E36AB
:102238000F360850045C095005580A5006580B50D0
:102248000758D8A009D00850045E0950055A0A500A
:10225800065A0B50075A0C80D890043605360636B5
:102268000736102EE1D711AE0DD01150800A9F0FFE
:10227800D8A0AAD7D8900F320E320D320C32113EA8
:10228800F9D70DD01F0E116407D09ED7D8900C3601
:102298000D360E360F3611061150D8A4F7D70CC0DC
:1022A80004F00DC005F00EC006F00FC007F01200D4
:1022B800000E04140C6E000E05140D6E800E06142C
:1022C8000E6E7F0E07140F6E0C500D100E100F10AF
:1022D800D8A408D0000E046E000E056E000E066E1F
:1022E800000E076E000E08140C6E000E09140D6E19
:1022F800800E0A140E6E7F0E0B140F6E0C500D100C
:102308000E100F10D8A408D0000E086E000E096E2B
:10231800000E0A6E000E0B6E07AE09D0046C051E87
:10232800D8B0052A061ED8B0062A800E07560BAE6E
:1023380009D0086C091ED8B0092A0A1ED8B00A2A82
:10234800800E0B56000E041A000E051A000E061A0F
:10235800800E071A000E081A000E091A000E0A1A33
:10236800800E0B1A0850045C095005580A5006588C
:102378000B500758D8B002D0D8901200D88012005D
:10238800363437343D6E3D50D8A409D0000E346E33
:10239800000E356E000E366E000E376E120034C019
:1023A80038F035C039F036C03AF037C03BF0200E6F
:1023B80005D0D8903B323A3239323832E82EF9D744
:1023C80038503C6E368EFF0E3416FF0E3516FF0E53
:1023D8003616000E3716960E3D5E3DAE0DD03D50BA
:1023E800800A970FD8A0D2D7D890373236323532F4
:1023F80034323D3EF9D70DD01F0E3D6407D0C6D705
:10240800D89034363536363637363D063D50D8A462
:10241800F7D73C50D8B408D0371E361E351E346C5A
:10242800000E35223622372234C034F035C035F05C
:1024380036C036F037C037F01200F29E000E0F019A
:10244800386F100E396F000E3A6F000E3B6F000E9A
:102458003C6F3F0E926E9368BB0E946E95689668BB
:10246800000EB86E000EAB6E000EAC6EB896B89A41
:10247800AC84CF0EAF6EAC98AB8EAB88AB9AAC9CED
:10248800AB9CAC8AAE50BA80BA82BA96BA98BA9A5D
:10249800BA9C630EBB6E9E92BA84000EF26E000E5A
:1024A8009D6E000EA06E000EA36E000E7A6E000EDA
:1024B8007D6EF28C9D8A9E9A9D909D82A0927D90C1
:1024C800F29AA38EF28E1200596F75206172652000
:1024D8006D79206F6E6C7920646964647920776106
:1024E800682064696464792C20796F7520756E643E
:1024F80065727374616E64206D652C20646F6E273D
:102508007420796F753F000000E0FE46004AC64619
:1025180000729B46007C75460034434600401C46CA
:1025280000C0FB459A0DCC45335FA645666A8845D1
:1025380033EB604553544152542052454144000006
:102548000000000000000000000000000000000083
:1025580000000000000E04140C6E000E05140D6E31
:10256800800E06140E6E7F0E07140F6E0C500D10A1
:102578000E100F10D8A408D0000E046E000E056EC1
:10258800000E066E000E076E000E08140C6E000E8C
:1025980009140D6E800E0A140E6E7F0E0B140F6E4A
:1025A8000C500D100E100F10D8A408D0000E086E95
:1025B800000E096E000E0A6E000E0B6E085004180D
:1025C8000AE10950051807E10A50061804E10B5002
:1025D8000718D8B402D0D8901200D8801200000E84
:1025E8000F6E0DAE06D00C6C0D1ED8B00D2A010E64
:1025F8000F6E0BAE06D00A6C0B1ED8B00B2A010E5C
:102608000F1A000E116E000E106E0C500D10D8B47B
:102618001CD0010E0E6E04D0D8900C360D360E2A42
:102628000DAEFAD7D890103611360C500A5C0D5002
:102638000B58D8A005D00C500A5E0D500B5A1080CC
:10264800D8900D320C320E2EEDD70F50D8B404D0DE
:10265800106C111ED8B0112A10C00AF011C00BF06E
:102668001200000E0C6E000E0D6E000E0E6E000EA7
:102678000F6E085009100A100B10D8B42AD0010E9A
:10268800106E06D0D890083609360A360B36102A4E
:102698000BAEF8D7D8900C360D360E360F360850DC
:1026A800045C095005580A5006580B500758D8A022
:1026B80009D00850045E0950055A0A50065A0B50B2
:1026C800075A0C80D8900B320A3209320832102E81
:1026D800E1D70CC004F00DC005F00EC006F00FC025
:1026E80007F012008E6F000E0001916F8FEC15F04D
:1026F800000E056E00018E516AEC15F089EC15F09C
:10270800000191139151D8A416D0000E906F0ED0ED
:1027180057509025D96EDA6ADF508F6F8F517CEC55
:1027280015F089EC15F000019113902B5650905D2F
:10273800D8B00DD0EDD7000E056E640E046ECFEC48
:1027480014F0C80E816F3F0E826F00EC15F094EC08
:1027580015F0000191511200000E096E05AE06D069
:10276800046C051ED8B0052A010E096E07AE04D008
:10277800066C071ED8B0072A06500710D8B418D020
:10278800010E086E04D0D89006360736082A07AE20
:10279800FAD70650045C07500558D8A004D0065054
:1027A800045E0750055AD89007320632082EF1D732
:1027B8000950D8B404D0046C051ED8B0052A04C04A
:1027C80004F005C005F01200155016101710181067
:1027D800D8B424D0010E196E06D0D8901536163606
:1027E80017361836192A18AEF8D71550115C165036
:1027F80012581750135818501458D8A008D015500C
:10280800115E1650125A1750135A1850145AD8906D
:102818001832173216321532192EE7D711C011F0B7
:1028280012C012F013C013F014C014F01200D00E2E
:10283800F66E240EF76E000EF86E01EE00F010EE44
:102848008CF00900F5CFEEFFE550E150FAE102EE19
:1028580000F011EE00F0EE6AE550E150FCE1E250C4
:10286800FAE101EE8CF0600EEE6AE806FDE100EE9A
:10287800D9F0270EEE6AE806FDE15A6A596A586AE5
:102888005B905B92000EF86E0001D0EF0FF00A6EBD
:10289800000E0B6E8FEC15F0010E056E0A506AECF7
:1028A80015F089EC15F00B12000E0C6E09500C2473
:1028B800D96EDA6A74EC15F0DF6E0C2A08500C5CDD
:1028C800D8B004D0010E5FEC15F003D0000E5FEC19
:1028D80015F008500C5CD8A0E9D794EC15F00B5013
:1028E8001200000E4E1A000E4F1A000E501A800EDB
:1028F800511A4AC03AF04BC03BF04CC03CF04DC0B6
:102908003DF04EC03EF04FC03FF050C040F051C0C7
:1029180041F075EC0CF03AC04AF03BC04BF03CC0BB
:102928004CF03DC04DF01200096E000E0B6E0850C1
:10293800D8B415D0010E0A6E03D0D89008360A2AEA
:1029480008AEFBD7D8900B360850095CD8A003D046
:102958000850095E0B80D89008320A2EF3D70B5026
:10296800120081C089F08A6B000E8B6F000E8C6F8D
:10297800840E886F890E526E82C053F083C054F063
:10298800880E556E64EC00F089C0D9FF8AC0DAFF62
:10299800000EDF6E1200000E076E000E066E0ED0DF
:1029A800010E096EF40E086E03D00806D8A00906B9
:1029B80008500910D8A4F9D7064A072A0450065C1B
:1029C80005500758D8B01200EBD704500510061070
:1029D8000710D8B408D0000E041A000E051A000E0D
:1029E800061A800E071A04C004F005C005F006C0D8
:1029F80006F007C007F01200000E8A6F000E8B6FFA
:102A0800060E8C6F2B0E8D6F830E896F8A0E526E99
:102A180081C053F082C054F0890E556E64EC00F00A
:102A28001200056E080E066E000E076ED89005346B
:102A38000734076ED89005360450075CD8A002D03A
:102A48000450075E062EF2D7075012000450060203
:102A5800F3CF08F0F4CF09F004500702F350092629
:102A680005500602F350092608C004F009C005F015
:102A78001200000EC66E000EC56E000ECB6EC68A22
:102A8800C686C694C692C6909F0EC86E000EC76EC4
:102A98009E9694EC15F01200066E000E056E3A0E26
:102AA800066005D02F0E066402D0010E056E05C023
:102AB80004F004301200046E04A002D0C59A01D0BC
:102AC800C58AC5889EA6FED79E961200066E065039
:102AD8000624FE0B0510076E07507CEC15F012005B
:102AE800C5869EA6FED79E96C9CF04F00450120054
:102AF800046E04C0C9FF9EA6FED79E961200046EFF
:102B08009EA8FED704C0ADFF1200000EC5BC010E82
:102B1800046E04501200C5809EA6FED79E96120031
:0A2B2800C5849EA6FED79E961200FB
:103E4000000000803F000020410000C84200007ACE
:103E50004400401C460050C3470024744980961813
:103E60004B20BCBE4C286B6E4EF9021550EC78AD61
:103E700060CAF249710000803FCDCCCC3D0AD72307
:103E80003C6F12833A17B7D138ACC52737BD378698
:103E90003595BFD63377CC2B325F708930FFE6DBA8
:103EA0002E08E53C1E6042A20D010000000A000041
:103EB0000064000000E803000010270000A0860155
:103EC0000040420F008096980000E1F50500CA9A74
:103ED0003B0D43616C2041442061766572616765EA
:103EE0003A2025302E306620636F756E74732C2057
:103EF00043616C20566F6C746167653A2025302EE3
:103F0000336620766F6C74732C2043616C2063756C
:103F10007272656E743A2025302E3366207541002A
:103F20000D43617020414420617665726167653A96
:103F30002025302E306620636F756E74732C2043FD
:103F4000617020566F6C746167653A2025302E31A0
:103F50006620766F6C74732C2043617061636974A2
:103F6000616E63653A2025302E3166207046000D63
:103F70000D5354415254494E4720493243204D413C
:103F80005354455220205353507878414444203DA7
:103F90002032373B2E2E2E202330000D2325643A6D
:103FA0002053454E442C204552524F52533A20251F
:103FB00064000D524543563A2025732C2045525239
:103FC0004F52533A202564000D534C41564520571B
:103FD00052495445204E4F2041434B002325643A1B
:103FE000203031323334353637383930000D5245D0
:0F3FF00043563A20257300286E756C6C2900002B
:020000040020DA
:08000000FFFFFFFFFFFFFFFF00
:020000040030CA
:0E000000FF331F3CFFBD85FF03C003E003403C
:00000001FF
